{
  "_format": "hh-sol-artifact-1",
  "contractName": "TokenTracker",
  "sourceName": "contracts/TokenTracker.sol",
  "abi": [
    {
      "anonymous": false,
      "inputs": [
        {
          "indexed": true,
          "internalType": "address",
          "name": "tokenAddress",
          "type": "address"
        },
        {
          "indexed": false,
          "internalType": "uint256",
          "name": "launchTime",
          "type": "uint256"
        }
      ],
      "name": "TokenRegistered",
      "type": "event"
    },
    {
      "inputs": [],
      "name": "getRegisteredTokens",
      "outputs": [
        {
          "internalType": "address[]",
          "name": "",
          "type": "address[]"
        }
      ],
      "stateMutability": "view",
      "type": "function"
    },
    {
      "inputs": [
        {
          "internalType": "address",
          "name": "_tokenAddress",
          "type": "address"
        }
      ],
      "name": "getTokenInfo",
      "outputs": [
        {
          "components": [
            {
              "internalType": "address",
              "name": "tokenAddress",
              "type": "address"
            },
            {
              "internalType": "uint256",
              "name": "launchTime",
              "type": "uint256"
            },
            {
              "internalType": "uint256",
              "name": "totalSupply",
              "type": "uint256"
            },
            {
              "internalType": "uint256",
              "name": "liquidity",
              "type": "uint256"
            },
            {
              "internalType": "uint256",
              "name": "holderCount",
              "type": "uint256"
            }
          ],
          "internalType": "struct TokenTracker.TokenInfo",
          "name": "",
          "type": "tuple"
        }
      ],
      "stateMutability": "view",
      "type": "function"
    },
    {
      "inputs": [
        {
          "internalType": "address",
          "name": "_tokenAddress",
          "type": "address"
        }
      ],
      "name": "registerToken",
      "outputs": [],
      "stateMutability": "nonpayable",
      "type": "function"
    },
    {
      "inputs": [
        {
          "internalType": "uint256",
          "name": "",
          "type": "uint256"
        }
      ],
      "name": "registeredTokens",
      "outputs": [
        {
          "internalType": "address",
          "name": "",
          "type": "address"
        }
      ],
      "stateMutability": "view",
      "type": "function"
    },
    {
      "inputs": [
        {
          "internalType": "address",
          "name": "",
          "type": "address"
        }
      ],
      "name": "tokenRegistry",
      "outputs": [
        {
          "internalType": "address",
          "name": "tokenAddress",
          "type": "address"
        },
        {
          "internalType": "uint256",
          "name": "launchTime",
          "type": "uint256"
        },
        {
          "internalType": "uint256",
          "name": "totalSupply",
          "type": "uint256"
        },
        {
          "internalType": "uint256",
          "name": "liquidity",
          "type": "uint256"
        },
        {
          "internalType": "uint256",
          "name": "holderCount",
          "type": "uint256"
        }
      ],
      "stateMutability": "view",
      "type": "function"
    },
    {
      "inputs": [
        {
          "internalType": "address",
          "name": "_tokenAddress",
          "type": "address"
        },
        {
          "internalType": "uint256",
          "name": "_holderCount",
          "type": "uint256"
        }
      ],
      "name": "updateHolderCount",
      "outputs": [],
      "stateMutability": "nonpayable",
      "type": "function"
    },
    {
      "inputs": [
        {
          "internalType": "address",
          "name": "_tokenAddress",
          "type": "address"
        },
        {
          "internalType": "uint256",
          "name": "_liquidity",
          "type": "uint256"
        }
      ],
      "name": "updateLiquidity",
      "outputs": [],
      "stateMutability": "nonpayable",
      "type": "function"
    }
  ],
  "bytecode": "0x608060405234801561001057600080fd5b50610d72806100206000396000f3fe608060405234801561001057600080fd5b506004361061007d5760003560e01c80631f69565f1161005b5780631f69565f146100d857806323605e2b146101085780639a0ba2ea14610124578063fdd07517146101545761007d565b806309824a80146100825780630ef65e1b1461009e57806314cbd993146100ba575b600080fd5b61009c60048036038101906100979190610931565b610188565b005b6100b860048036038101906100b3919061095a565b61047e565b005b6100c2610599565b6040516100cf9190610bf0565b60405180910390f35b6100f260048036038101906100ed9190610931565b610627565b6040516100ff9190610c52565b60405180910390f35b610122600480360381019061011d919061095a565b6106fd565b005b61013e60048036038101906101399190610996565b610818565b60405161014b9190610b82565b60405180910390f35b61016e60048036038101906101699190610931565b610857565b60405161017f959493929190610b9d565b60405180910390f35b600073ffffffffffffffffffffffffffffffffffffffff166000808373ffffffffffffffffffffffffffffffffffffffff1673ffffffffffffffffffffffffffffffffffffffff16815260200190815260200160002060000160009054906101000a900473ffffffffffffffffffffffffffffffffffffffff1673ffffffffffffffffffffffffffffffffffffffff1614610258576040517f08c379a000000000000000000000000000000000000000000000000000000000815260040161024f90610c32565b60405180910390fd5b60008173ffffffffffffffffffffffffffffffffffffffff166318160ddd6040518163ffffffff1660e01b815260040160206040518083038186803b1580156102a057600080fd5b505afa1580156102b4573d6000803e3d6000fd5b505050506040513d601f19601f820116820180604052508101906102d891906109bf565b90506040518060a001604052808373ffffffffffffffffffffffffffffffffffffffff1681526020014281526020018281526020016000815260200160008152506000808473ffffffffffffffffffffffffffffffffffffffff1673ffffffffffffffffffffffffffffffffffffffff16815260200190815260200160002060008201518160000160006101000a81548173ffffffffffffffffffffffffffffffffffffffff021916908373ffffffffffffffffffffffffffffffffffffffff160217905550602082015181600101556040820151816002015560608201518160030155608082015181600401559050506001829080600181540180825580915050600190039060005260206000200160009091909190916101000a81548173ffffffffffffffffffffffffffffffffffffffff021916908373ffffffffffffffffffffffffffffffffffffffff1602179055508173ffffffffffffffffffffffffffffffffffffffff167fd7ca5dc2f8c6bb37c3a4de2a81499b25f8ca8bbb3082010244fe747077d0f6cc426040516104729190610c6d565b60405180910390a25050565b600073ffffffffffffffffffffffffffffffffffffffff166000808473ffffffffffffffffffffffffffffffffffffffff1673ffffffffffffffffffffffffffffffffffffffff16815260200190815260200160002060000160009054906101000a900473ffffffffffffffffffffffffffffffffffffffff1673ffffffffffffffffffffffffffffffffffffffff16141561054f576040517f08c379a000000000000000000000000000000000000000000000000000000000815260040161054690610c12565b60405180910390fd5b806000808473ffffffffffffffffffffffffffffffffffffffff1673ffffffffffffffffffffffffffffffffffffffff168152602001908152602001600020600301819055505050565b6060600180548060200260200160405190810160405280929190818152602001828054801561061d57602002820191906000526020600020905b8160009054906101000a900473ffffffffffffffffffffffffffffffffffffffff1673ffffffffffffffffffffffffffffffffffffffff16815260200190600101908083116105d3575b5050505050905090565b61062f6108ad565b6000808373ffffffffffffffffffffffffffffffffffffffff1673ffffffffffffffffffffffffffffffffffffffff1681526020019081526020016000206040518060a00160405290816000820160009054906101000a900473ffffffffffffffffffffffffffffffffffffffff1673ffffffffffffffffffffffffffffffffffffffff1673ffffffffffffffffffffffffffffffffffffffff1681526020016001820154815260200160028201548152602001600382015481526020016004820154815250509050919050565b600073ffffffffffffffffffffffffffffffffffffffff166000808473ffffffffffffffffffffffffffffffffffffffff1673ffffffffffffffffffffffffffffffffffffffff16815260200190815260200160002060000160009054906101000a900473ffffffffffffffffffffffffffffffffffffffff1673ffffffffffffffffffffffffffffffffffffffff1614156107ce576040517f08c379a00000000000000000000000000000000000000000000000000000000081526004016107c590610c12565b60405180910390fd5b806000808473ffffffffffffffffffffffffffffffffffffffff1673ffffffffffffffffffffffffffffffffffffffff168152602001908152602001600020600401819055505050565b6001818154811061082857600080fd5b906000526020600020016000915054906101000a900473ffffffffffffffffffffffffffffffffffffffff1681565b60006020528060005260406000206000915090508060000160009054906101000a900473ffffffffffffffffffffffffffffffffffffffff16908060010154908060020154908060030154908060040154905085565b6040518060a00160405280600073ffffffffffffffffffffffffffffffffffffffff168152602001600081526020016000815260200160008152602001600081525090565b60008135905061090181610d0e565b92915050565b60008135905061091681610d25565b92915050565b60008151905061092b81610d25565b92915050565b60006020828403121561094357600080fd5b6000610951848285016108f2565b91505092915050565b6000806040838503121561096d57600080fd5b600061097b858286016108f2565b925050602061098c85828601610907565b9150509250929050565b6000602082840312156109a857600080fd5b60006109b684828501610907565b91505092915050565b6000602082840312156109d157600080fd5b60006109df8482850161091c565b91505092915050565b60006109f48383610a00565b60208301905092915050565b610a0981610cd2565b82525050565b610a1881610cd2565b82525050565b6000610a2982610c98565b610a338185610cb0565b9350610a3e83610c88565b8060005b83811015610a6f578151610a5688826109e8565b9750610a6183610ca3565b925050600181019050610a42565b5085935050505092915050565b6000610a89601483610cc1565b91507f546f6b656e206e6f7420726567697374657265640000000000000000000000006000830152602082019050919050565b6000610ac9601883610cc1565b91507f546f6b656e20616c7265616479207265676973746572656400000000000000006000830152602082019050919050565b60a082016000820151610b126000850182610a00565b506020820151610b256020850182610b64565b506040820151610b386040850182610b64565b506060820151610b4b6060850182610b64565b506080820151610b5e6080850182610b64565b50505050565b610b6d81610d04565b82525050565b610b7c81610d04565b82525050565b6000602082019050610b976000830184610a0f565b92915050565b600060a082019050610bb26000830188610a0f565b610bbf6020830187610b73565b610bcc6040830186610b73565b610bd96060830185610b73565b610be66080830184610b73565b9695505050505050565b60006020820190508181036000830152610c0a8184610a1e565b905092915050565b60006020820190508181036000830152610c2b81610a7c565b9050919050565b60006020820190508181036000830152610c4b81610abc565b9050919050565b600060a082019050610c676000830184610afc565b92915050565b6000602082019050610c826000830184610b73565b92915050565b6000819050602082019050919050565b600081519050919050565b6000602082019050919050565b600082825260208201905092915050565b600082825260208201905092915050565b6000610cdd82610ce4565b9050919050565b600073ffffffffffffffffffffffffffffffffffffffff82169050919050565b6000819050919050565b610d1781610cd2565b8114610d2257600080fd5b50565b610d2e81610d04565b8114610d3957600080fd5b5056fea264697066735822122044d6cddae58ba95d434299bfcaae6c325ad20750124ff3c1ac86d7097bbe839164736f6c63430008000033",
  "linkReferences": {},
  "deployedLinkReferences": {}
}